:100000000C945C000C946E000C946E000C946E00CA
:100010000C946E000C946E000C946E000C946E00A8
:100020000C946E000C946E000C946E000C946E0098
:100030000C946E000C946E000C946E000C946E0088
:100040000C9419010C946E000C946E000C946E00CC
:100050000C946E000C946E000C946E000C946E0068
:100060000C946E000C946E00000000080002010069
:100070000003040700000000000000000000000072
:10008000250028002B0000000000240027002A0083
:10009000040404040404040402020202020203032E
:1000A0000303030301020408102040800102040836
:1000B000102001020408102011241FBECFEFD8E049
:1000C000DEBFCDBF21E0A0E0B1E001C01D92A930AC
:1000D000B207E1F70E9463010C9489020C940000BE
:1000E00090E0FC01E859FF4F3491FC01EC55FF4FC3
:1000F0002491FC01E057FF4FE491EE2309F43BC04B
:10010000332339F1333091F038F43130A9F0323003
:1001100001F584B58F7D12C0373091F03830A1F0F1
:100120003430B9F4809180008F7D03C080918000CD
:100130008F77809380000DC084B58F7784BD09C010
:100140008091B0008F7703C08091B0008F7D809345
:10015000B000F0E0EE0FFF1FE458FF4FA591B491FF
:100160008FB7F894EC91611103C020952E2301C044
:100170002E2B2C938FBF08953FB7F89480910501E3
:1001800090910601A0910701B091080126B5A89BA6
:1001900005C02F3F19F00196A11DB11D3FBFBA2F19
:1001A000A92F982F8827820F911DA11DB11DBC0179
:1001B000CD0142E0660F771F881F991F4A95D1F73E
:1001C00008958F929F92AF92BF92CF92DF92EF925B
:1001D000FF920E94BC004B015C0188EEC82E83E0B8
:1001E000D82EE12CF12C0E94BC00DC01CB01881937
:1001F0009909AA09BB09883E9340A105B10558F0A9
:1002000021E0C21AD108E108F10888EE880E83E0E7
:10021000981EA11CB11CC114D104E104F10419F70A
:10022000FF90EF90DF90CF90BF90AF909F908F9016
:1002300008951F920F920FB60F9211242F933F93A0
:100240008F939F93AF93BF9380910101909102018F
:10025000A0910301B09104013091000123E0230F2C
:100260002D3720F40196A11DB11D05C026E8230FEE
:100270000296A11DB11D209300018093010190936E
:100280000201A0930301B0930401809105019091B4
:100290000601A0910701B09108010196A11DB11DB1
:1002A0008093050190930601A0930701B093080184
:1002B000BF91AF919F918F913F912F910F900FBE62
:1002C0000F901F901895789484B5826084BD84B592
:1002D000816084BD85B5826085BD85B5816085BD41
:1002E00080916E00816080936E00109281008091F9
:1002F0008100826080938100809181008160809381
:100300008100809180008160809380008091B100A5
:1003100084608093B1008091B00081608093B000D0
:1003200080917A00846080937A0080917A00826064
:1003300080937A0080917A00816080937A00809126
:100340007A00806880937A001092C10027E030E044
:10035000F901EC55FF4F4491F901E057FF4F8491AB
:10036000882399F090E0880F991FFC01EA57FF4F0E
:10037000A591B491FC01E458FF4F859194918FB7FA
:10038000F894EC91E42BEC938FBF2F5F3F4F2E300E
:100390003105F1F600E010E0C7E0D0E0C730D1054C
:1003A00019F460E087E002C061E08C2F0E947000C9
:1003B0002196CE30D10591F70E94E100C7E0D0E050
:1003C000CE010797049718F0CD30D10511F460E005
:1003D00001C061E08C2F0E9470002196CE30D105C3
:1003E00079F70E94E100C7E0D0E0C830D10519F0EC
:1003F000CB30D10511F460E001C061E08C2F0E9488
:1004000070002196CE30D10581F70E94E100C7E04F
:10041000D0E0CE010897029710F460E001C061E0DF
:100420008C2F0E9470002196CE30D10591F70E944A
:10043000E100C7E0D0E0CE010997029718F0CD3077
:10044000D10511F460E001C061E08C2F0E947000C2
:100450002196CE30D10579F70E94E100C7E0D0E0C7
:10046000C930D10519F0CC30D10511F460E001C0DC
:1004700061E08C2F0E9470002196CE30D10581F76B
:100480000E94E100C7E0D0E0CC30D10519F460E073
:100490008CE002C061E08C2F0E9470002196CE306B
:1004A000D10591F70E94E100C7E0D0E0CE010797A7
:1004B000049710F460E001C061E08C2F0E9470008E
:1004C0002196CE30D10591F70E94E100C7E061E0AE
:1004D0008C2F0E947000CF5FCE30C9F70E94E100E0
:1004E000C7E0D0E0C930D10519F460E089E002C06E
:1004F00061E08C2F0E9470002196CE30D10591F7DB
:100500000E94E1000115110509F446CF0E94000088
:0605100043CFF894FFCF79
:00000001FF
